{
  "_format": "hh-sol-artifact-1",
  "contractName": "NFT",
  "sourceName": "contracts/NFT.sol",
  "abi": [
    {
      "inputs": [
        {
          "internalType": "string",
          "name": "_name",
          "type": "string"
        },
        {
          "internalType": "string",
          "name": "_symbol",
          "type": "string"
        },
        {
          "internalType": "string",
          "name": "_contractURI",
          "type": "string"
        }
      ],
      "stateMutability": "nonpayable",
      "type": "constructor"
    },
    {
      "anonymous": false,
      "inputs": [
        {
          "indexed": true,
          "internalType": "address",
          "name": "owner",
          "type": "address"
        },
        {
          "indexed": true,
          "internalType": "address",
          "name": "approved",
          "type": "address"
        },
        {
          "indexed": true,
          "internalType": "uint256",
          "name": "tokenId",
          "type": "uint256"
        }
      ],
      "name": "Approval",
      "type": "event"
    },
    {
      "anonymous": false,
      "inputs": [
        {
          "indexed": true,
          "internalType": "address",
          "name": "owner",
          "type": "address"
        },
        {
          "indexed": true,
          "internalType": "address",
          "name": "operator",
          "type": "address"
        },
        {
          "indexed": false,
          "internalType": "bool",
          "name": "approved",
          "type": "bool"
        }
      ],
      "name": "ApprovalForAll",
      "type": "event"
    },
    {
      "anonymous": false,
      "inputs": [
        {
          "indexed": false,
          "internalType": "uint256",
          "name": "_fromTokenId",
          "type": "uint256"
        },
        {
          "indexed": false,
          "internalType": "uint256",
          "name": "_toTokenId",
          "type": "uint256"
        }
      ],
      "name": "BatchMetadataUpdate",
      "type": "event"
    },
    {
      "anonymous": false,
      "inputs": [
        {
          "indexed": false,
          "internalType": "uint256",
          "name": "_tokenId",
          "type": "uint256"
        }
      ],
      "name": "MetadataUpdate",
      "type": "event"
    },
    {
      "anonymous": false,
      "inputs": [
        {
          "indexed": true,
          "internalType": "address",
          "name": "previousOwner",
          "type": "address"
        },
        {
          "indexed": true,
          "internalType": "address",
          "name": "newOwner",
          "type": "address"
        }
      ],
      "name": "OwnershipTransferred",
      "type": "event"
    },
    {
      "anonymous": false,
      "inputs": [
        {
          "indexed": true,
          "internalType": "address",
          "name": "from",
          "type": "address"
        },
        {
          "indexed": true,
          "internalType": "address",
          "name": "to",
          "type": "address"
        },
        {
          "indexed": true,
          "internalType": "uint256",
          "name": "tokenId",
          "type": "uint256"
        }
      ],
      "name": "Transfer",
      "type": "event"
    },
    {
      "inputs": [
        {
          "internalType": "address",
          "name": "",
          "type": "address"
        },
        {
          "internalType": "uint256",
          "name": "",
          "type": "uint256"
        }
      ],
      "name": "_owners_tokenIds",
      "outputs": [
        {
          "internalType": "uint256",
          "name": "",
          "type": "uint256"
        }
      ],
      "stateMutability": "view",
      "type": "function"
    },
    {
      "inputs": [
        {
          "internalType": "address",
          "name": "to",
          "type": "address"
        },
        {
          "internalType": "uint256",
          "name": "tokenId",
          "type": "uint256"
        }
      ],
      "name": "approve",
      "outputs": [],
      "stateMutability": "nonpayable",
      "type": "function"
    },
    {
      "inputs": [
        {
          "internalType": "address",
          "name": "owner",
          "type": "address"
        }
      ],
      "name": "balanceOf",
      "outputs": [
        {
          "internalType": "uint256",
          "name": "",
          "type": "uint256"
        }
      ],
      "stateMutability": "view",
      "type": "function"
    },
    {
      "inputs": [
        {
          "internalType": "uint256",
          "name": "_tokenId",
          "type": "uint256"
        }
      ],
      "name": "burn",
      "outputs": [
        {
          "internalType": "bool",
          "name": "",
          "type": "bool"
        }
      ],
      "stateMutability": "nonpayable",
      "type": "function"
    },
    {
      "inputs": [],
      "name": "contractURI",
      "outputs": [
        {
          "internalType": "string",
          "name": "",
          "type": "string"
        }
      ],
      "stateMutability": "view",
      "type": "function"
    },
    {
      "inputs": [
        {
          "internalType": "uint256",
          "name": "tokenId",
          "type": "uint256"
        }
      ],
      "name": "getApproved",
      "outputs": [
        {
          "internalType": "address",
          "name": "",
          "type": "address"
        }
      ],
      "stateMutability": "view",
      "type": "function"
    },
    {
      "inputs": [],
      "name": "getLastTokenId",
      "outputs": [
        {
          "internalType": "uint256",
          "name": "",
          "type": "uint256"
        }
      ],
      "stateMutability": "view",
      "type": "function"
    },
    {
      "inputs": [
        {
          "internalType": "address",
          "name": "_user",
          "type": "address"
        }
      ],
      "name": "getOwnerTokenIds",
      "outputs": [
        {
          "internalType": "uint256[]",
          "name": "",
          "type": "uint256[]"
        }
      ],
      "stateMutability": "view",
      "type": "function"
    },
    {
      "inputs": [
        {
          "internalType": "address",
          "name": "owner",
          "type": "address"
        },
        {
          "internalType": "address",
          "name": "operator",
          "type": "address"
        }
      ],
      "name": "isApprovedForAll",
      "outputs": [
        {
          "internalType": "bool",
          "name": "",
          "type": "bool"
        }
      ],
      "stateMutability": "view",
      "type": "function"
    },
    {
      "inputs": [
        {
          "internalType": "address",
          "name": "_user",
          "type": "address"
        },
        {
          "internalType": "string",
          "name": "tokenURI",
          "type": "string"
        },
        {
          "internalType": "uint256",
          "name": "_royalties",
          "type": "uint256"
        }
      ],
      "name": "mint",
      "outputs": [
        {
          "internalType": "uint256",
          "name": "",
          "type": "uint256"
        }
      ],
      "stateMutability": "nonpayable",
      "type": "function"
    },
    {
      "inputs": [],
      "name": "name",
      "outputs": [
        {
          "internalType": "string",
          "name": "",
          "type": "string"
        }
      ],
      "stateMutability": "view",
      "type": "function"
    },
    {
      "inputs": [],
      "name": "owner",
      "outputs": [
        {
          "internalType": "address",
          "name": "",
          "type": "address"
        }
      ],
      "stateMutability": "view",
      "type": "function"
    },
    {
      "inputs": [
        {
          "internalType": "uint256",
          "name": "tokenId",
          "type": "uint256"
        }
      ],
      "name": "ownerOf",
      "outputs": [
        {
          "internalType": "address",
          "name": "",
          "type": "address"
        }
      ],
      "stateMutability": "view",
      "type": "function"
    },
    {
      "inputs": [],
      "name": "renounceOwnership",
      "outputs": [],
      "stateMutability": "nonpayable",
      "type": "function"
    },
    {
      "inputs": [
        {
          "internalType": "uint256",
          "name": "_tokenId",
          "type": "uint256"
        },
        {
          "internalType": "uint256",
          "name": "_sellPrice",
          "type": "uint256"
        }
      ],
      "name": "royaltyInfo",
      "outputs": [
        {
          "internalType": "address",
          "name": "receiver",
          "type": "address"
        },
        {
          "internalType": "uint256",
          "name": "royaltyAmount",
          "type": "uint256"
        }
      ],
      "stateMutability": "view",
      "type": "function"
    },
    {
      "inputs": [
        {
          "internalType": "address",
          "name": "from",
          "type": "address"
        },
        {
          "internalType": "address",
          "name": "to",
          "type": "address"
        },
        {
          "internalType": "uint256",
          "name": "tokenId",
          "type": "uint256"
        }
      ],
      "name": "safeTransferFrom",
      "outputs": [],
      "stateMutability": "nonpayable",
      "type": "function"
    },
    {
      "inputs": [
        {
          "internalType": "address",
          "name": "from",
          "type": "address"
        },
        {
          "internalType": "address",
          "name": "to",
          "type": "address"
        },
        {
          "internalType": "uint256",
          "name": "tokenId",
          "type": "uint256"
        },
        {
          "internalType": "bytes",
          "name": "data",
          "type": "bytes"
        }
      ],
      "name": "safeTransferFrom",
      "outputs": [],
      "stateMutability": "nonpayable",
      "type": "function"
    },
    {
      "inputs": [
        {
          "internalType": "address",
          "name": "operator",
          "type": "address"
        },
        {
          "internalType": "bool",
          "name": "approved",
          "type": "bool"
        }
      ],
      "name": "setApprovalForAll",
      "outputs": [],
      "stateMutability": "nonpayable",
      "type": "function"
    },
    {
      "inputs": [
        {
          "internalType": "uint256",
          "name": "_tokenId",
          "type": "uint256"
        },
        {
          "internalType": "address payable",
          "name": "_royaltiesReceipientAddress",
          "type": "address"
        },
        {
          "internalType": "uint256",
          "name": "_percentageBasisPoints",
          "type": "uint256"
        }
      ],
      "name": "setRoyalties",
      "outputs": [],
      "stateMutability": "nonpayable",
      "type": "function"
    },
    {
      "inputs": [
        {
          "internalType": "bytes4",
          "name": "interfaceId",
          "type": "bytes4"
        }
      ],
      "name": "supportsInterface",
      "outputs": [
        {
          "internalType": "bool",
          "name": "",
          "type": "bool"
        }
      ],
      "stateMutability": "view",
      "type": "function"
    },
    {
      "inputs": [],
      "name": "symbol",
      "outputs": [
        {
          "internalType": "string",
          "name": "",
          "type": "string"
        }
      ],
      "stateMutability": "view",
      "type": "function"
    },
    {
      "inputs": [
        {
          "internalType": "uint256",
          "name": "tokenId",
          "type": "uint256"
        }
      ],
      "name": "tokenURI",
      "outputs": [
        {
          "internalType": "string",
          "name": "",
          "type": "string"
        }
      ],
      "stateMutability": "view",
      "type": "function"
    },
    {
      "inputs": [
        {
          "internalType": "address",
          "name": "from",
          "type": "address"
        },
        {
          "internalType": "address",
          "name": "to",
          "type": "address"
        },
        {
          "internalType": "uint256",
          "name": "tokenId",
          "type": "uint256"
        }
      ],
      "name": "transferFrom",
      "outputs": [],
      "stateMutability": "nonpayable",
      "type": "function"
    },
    {
      "inputs": [
        {
          "internalType": "address",
          "name": "newOwner",
          "type": "address"
        }
      ],
      "name": "transferOwnership",
      "outputs": [],
      "stateMutability": "nonpayable",
      "type": "function"
    }
  ],
  "bytecode": "0x60806040523480156200001157600080fd5b50604051620020d1380380620020d1833981016040819052620000349162000288565b8251839083906200004d90600090602085019062000115565b5080516200006390600190602084019062000115565b505050620000806200007a620000b660201b60201c565b620000ba565b80516200009590600a90602084019062000115565b50620000ad60086200010c60201b62000b741760201c565b50505062000356565b3390565b600780546001600160a01b038381166001600160a01b0319831681179093556040519116919082907f8be0079c531659141344cd1fd0a4f28419497f9722a3daafe3b4186f6b6457e090600090a35050565b80546001019055565b828054620001239062000319565b90600052602060002090601f01602090048101928262000147576000855562000192565b82601f106200016257805160ff191683800117855562000192565b8280016001018555821562000192579182015b828111156200019257825182559160200191906001019062000175565b50620001a0929150620001a4565b5090565b5b80821115620001a05760008155600101620001a5565b634e487b7160e01b600052604160045260246000fd5b600082601f830112620001e357600080fd5b81516001600160401b0380821115620002005762000200620001bb565b604051601f8301601f19908116603f011681019082821181831017156200022b576200022b620001bb565b816040528381526020925086838588010111156200024857600080fd5b600091505b838210156200026c57858201830151818301840152908201906200024d565b838211156200027e5760008385830101525b9695505050505050565b6000806000606084860312156200029e57600080fd5b83516001600160401b0380821115620002b657600080fd5b620002c487838801620001d1565b94506020860151915080821115620002db57600080fd5b620002e987838801620001d1565b935060408601519150808211156200030057600080fd5b506200030f86828701620001d1565b9150509250925092565b600181811c908216806200032e57607f821691505b602082108114156200035057634e487b7160e01b600052602260045260246000fd5b50919050565b611d6b80620003666000396000f3fe608060405234801561001057600080fd5b50600436106101585760003560e01c806383c4c00d116100c3578063c87b56dd1161007c578063c87b56dd146102ee578063e2c7f33814610301578063e66b600014610314578063e8a3d48514610334578063e985e9c51461033c578063f2fde38b1461037857600080fd5b806383c4c00d146102945780638da5cb5b1461029c57806395d89b41146102ad578063a22cb465146102b5578063b88d4fde146102c8578063ba7aef43146102db57600080fd5b806342842e0e1161011557806342842e0e1461021f57806342966c68146102325780636352211e14610245578063665310df1461025857806370a0823114610279578063715018a61461028c57600080fd5b806301ffc9a71461015d57806306fdde0314610185578063081812fc1461019a578063095ea7b3146101c557806323b872dd146101da5780632a55205a146101ed575b600080fd5b61017061016b36600461175d565b61038b565b60405190151581526020015b60405180910390f35b61018d6103b6565b60405161017c91906117d2565b6101ad6101a83660046117e5565b610448565b6040516001600160a01b03909116815260200161017c565b6101d86101d3366004611813565b61046f565b005b6101d86101e836600461183f565b61058a565b6102006101fb366004611880565b6105bb565b604080516001600160a01b03909316835260208301919091520161017c565b6101d861022d36600461183f565b610611565b6101706102403660046117e5565b61062c565b6101ad6102533660046117e5565b6106da565b61026b610266366004611813565b61073a565b60405190815260200161017c565b61026b6102873660046118a2565b61076b565b6101d86107f1565b61026b610805565b6007546001600160a01b03166101ad565b61018d610821565b6101d86102c33660046118bf565b610830565b6101d86102d6366004611913565b61083f565b61026b6102e93660046119f3565b610877565b61018d6102fc3660046117e5565b610927565b6101d861030f366004611a7e565b610a30565b6103276103223660046118a2565b610a80565b60405161017c9190611aa5565b61018d610aec565b61017061034a366004611ae9565b6001600160a01b03918216600090815260056020908152604080832093909416825291909152205460ff1690565b6101d86103863660046118a2565b610afb565b60006001600160e01b0319821663152a902d60e11b14806103b057506103b082610b7d565b92915050565b6060600080546103c590611b17565b80601f01602080910402602001604051908101604052809291908181526020018280546103f190611b17565b801561043e5780601f106104135761010080835404028352916020019161043e565b820191906000526020600020905b81548152906001019060200180831161042157829003601f168201915b5050505050905090565b600061045382610ba2565b506000908152600460205260409020546001600160a01b031690565b600061047a826106da565b9050806001600160a01b0316836001600160a01b031614156104ed5760405162461bcd60e51b815260206004820152602160248201527f4552433732313a20617070726f76616c20746f2063757272656e74206f776e656044820152603960f91b60648201526084015b60405180910390fd5b336001600160a01b03821614806105095750610509813361034a565b61057b5760405162461bcd60e51b815260206004820152603d60248201527f4552433732313a20617070726f76652063616c6c6572206973206e6f7420746f60448201527f6b656e206f776e6572206f7220617070726f76656420666f7220616c6c00000060648201526084016104e4565b6105858383610c01565b505050565b6105943382610c6f565b6105b05760405162461bcd60e51b81526004016104e490611b52565b610585838383610ced565b6000828152600960209081526040808320815180830190925280546001600160a01b03168252600101549181018290528291612710906105fb9086611bb5565b6106059190611bd4565b90519590945092505050565b6105858383836040518060200160405280600081525061083f565b6000610636610e51565b61063f82610eab565b60005b336000908152600b60205260409020548110156106d157336000908152600b6020526040902080548491908390811061067d5761067d611bf6565b906000526020600020015414156106bf57336000908152600b602052604090208054829081106106af576106af611bf6565b60009182526020822001556106d1565b806106c981611c0c565b915050610642565b50600192915050565b6000818152600260205260408120546001600160a01b0316806103b05760405162461bcd60e51b8152602060048201526018602482015277115490cdcc8c4e881a5b9d985b1a59081d1bdad95b88125160421b60448201526064016104e4565b600b602052816000526040600020818154811061075657600080fd5b90600052602060002001600091509150505481565b60006001600160a01b0382166107d55760405162461bcd60e51b815260206004820152602960248201527f4552433732313a2061646472657373207a65726f206973206e6f7420612076616044820152683634b21037bbb732b960b91b60648201526084016104e4565b506001600160a01b031660009081526003602052604090205490565b6107f9610e51565b6108036000610eeb565b565b6000600161081260085490565b61081c9190611c27565b905090565b6060600180546103c590611b17565b61083b338383610f3d565b5050565b6108493383610c6f565b6108655760405162461bcd60e51b81526004016104e490611b52565b6108718484848461100c565b50505050565b6000610881610e51565b600061088c60085490565b905061089c600880546001019055565b6108a6868261103f565b6108e68186868080601f0160208091040260200160405190810160405280939291908181526020018383808284376000920191909152506111ca92505050565b6001600160a01b0386166000908152600b602090815260408220805460018101825590835291200181905561091c818785610a30565b90505b949350505050565b606061093282610ba2565b6000828152600660205260408120805461094b90611b17565b80601f016020809104026020016040519081016040528092919081815260200182805461097790611b17565b80156109c45780601f10610999576101008083540402835291602001916109c4565b820191906000526020600020905b8154815290600101906020018083116109a757829003601f168201915b5050505050905060006109e260408051602081019091526000815290565b90508051600014156109f5575092915050565b815115610a27578082604051602001610a0f929190611c3e565b60405160208183030381529060405292505050919050565b61091f8461129c565b610a38610e51565b6040805180820182526001600160a01b03938416815260208082019384526000958652600990529320925183546001600160a01b031916921691909117825551600190910155565b6001600160a01b0381166000908152600b6020908152604091829020805483518184028101840190945280845260609392830182828015610ae057602002820191906000526020600020905b815481526020019060010190808311610acc575b50505050509050919050565b6060600a80546103c590611b17565b610b03610e51565b6001600160a01b038116610b685760405162461bcd60e51b815260206004820152602660248201527f4f776e61626c653a206e6577206f776e657220697320746865207a65726f206160448201526564647265737360d01b60648201526084016104e4565b610b7181610eeb565b50565b80546001019055565b60006001600160e01b03198216632483248360e11b14806103b057506103b082611310565b6000818152600260205260409020546001600160a01b0316610b715760405162461bcd60e51b8152602060048201526018602482015277115490cdcc8c4e881a5b9d985b1a59081d1bdad95b88125160421b60448201526064016104e4565b600081815260046020526040902080546001600160a01b0319166001600160a01b0384169081179091558190610c36826106da565b6001600160a01b03167f8c5be1e5ebec7d5bd14f71427d1e84f3dd0314c0f7b2291e5b200ac8c7c3b92560405160405180910390a45050565b600080610c7b836106da565b9050806001600160a01b0316846001600160a01b03161480610cc257506001600160a01b0380821660009081526005602090815260408083209388168352929052205460ff165b8061091f5750836001600160a01b0316610cdb84610448565b6001600160a01b031614949350505050565b826001600160a01b0316610d00826106da565b6001600160a01b031614610d265760405162461bcd60e51b81526004016104e490611c6d565b6001600160a01b038216610d885760405162461bcd60e51b8152602060048201526024808201527f4552433732313a207472616e7366657220746f20746865207a65726f206164646044820152637265737360e01b60648201526084016104e4565b826001600160a01b0316610d9b826106da565b6001600160a01b031614610dc15760405162461bcd60e51b81526004016104e490611c6d565b600081815260046020908152604080832080546001600160a01b03199081169091556001600160a01b0387811680865260038552838620805460001901905590871680865283862080546001019055868652600290945282852080549092168417909155905184937fddf252ad1be2c89b69c2b068fc378daa952ba7f163c4a11628f55a4df523b3ef91a4505050565b6007546001600160a01b031633146108035760405162461bcd60e51b815260206004820181905260248201527f4f776e61626c653a2063616c6c6572206973206e6f7420746865206f776e657260448201526064016104e4565b610eb481611360565b60008181526006602052604090208054610ecd90611b17565b159050610b71576000818152600660205260408120610b7191611674565b600780546001600160a01b038381166001600160a01b0319831681179093556040519116919082907f8be0079c531659141344cd1fd0a4f28419497f9722a3daafe3b4186f6b6457e090600090a35050565b816001600160a01b0316836001600160a01b03161415610f9f5760405162461bcd60e51b815260206004820152601960248201527f4552433732313a20617070726f766520746f2063616c6c65720000000000000060448201526064016104e4565b6001600160a01b03838116600081815260056020908152604080832094871680845294825291829020805460ff191686151590811790915591519182527f17307eab39ab6107e8899845ad3d59bd9653f200f220920489ca2b5937696c31910160405180910390a3505050565b611017848484610ced565b611023848484846113f5565b6108715760405162461bcd60e51b81526004016104e490611cb2565b6001600160a01b0382166110955760405162461bcd60e51b815260206004820181905260248201527f4552433732313a206d696e7420746f20746865207a65726f206164647265737360448201526064016104e4565b6000818152600260205260409020546001600160a01b0316156110fa5760405162461bcd60e51b815260206004820152601c60248201527f4552433732313a20746f6b656e20616c7265616479206d696e7465640000000060448201526064016104e4565b6000818152600260205260409020546001600160a01b03161561115f5760405162461bcd60e51b815260206004820152601c60248201527f4552433732313a20746f6b656e20616c7265616479206d696e7465640000000060448201526064016104e4565b6001600160a01b038216600081815260036020908152604080832080546001019055848352600290915280822080546001600160a01b0319168417905551839291907fddf252ad1be2c89b69c2b068fc378daa952ba7f163c4a11628f55a4df523b3ef908290a45050565b6000828152600260205260409020546001600160a01b03166112455760405162461bcd60e51b815260206004820152602e60248201527f45524337323155524953746f726167653a2055524920736574206f66206e6f6e60448201526d32bc34b9ba32b73a103a37b5b2b760911b60648201526084016104e4565b60008281526006602090815260409091208251611264928401906116ae565b506040518281527ff8e1a15aba9398e019f0b49df1a4fde98ee17ae345cb5f6b5e2c27f5033e8ce79060200160405180910390a15050565b60606112a782610ba2565b60006112be60408051602081019091526000815290565b905060008151116112de5760405180602001604052806000815250611309565b806112e8846114ff565b6040516020016112f9929190611c3e565b6040516020818303038152906040525b9392505050565b60006001600160e01b031982166380ac58cd60e01b148061134157506001600160e01b03198216635b5e139f60e01b145b806103b057506301ffc9a760e01b6001600160e01b03198316146103b0565b600061136b826106da565b9050611376826106da565b600083815260046020908152604080832080546001600160a01b03199081169091556001600160a01b0385168085526003845282852080546000190190558785526002909352818420805490911690555192935084927fddf252ad1be2c89b69c2b068fc378daa952ba7f163c4a11628f55a4df523b3ef908390a45050565b60006001600160a01b0384163b156114f757604051630a85bd0160e11b81526001600160a01b0385169063150b7a0290611439903390899088908890600401611d04565b602060405180830381600087803b15801561145357600080fd5b505af1925050508015611483575060408051601f3d908101601f1916820190925261148091810190611d41565b60015b6114dd573d8080156114b1576040519150601f19603f3d011682016040523d82523d6000602084013e6114b6565b606091505b5080516114d55760405162461bcd60e51b81526004016104e490611cb2565b805181602001fd5b6001600160e01b031916630a85bd0160e11b14905061091f565b50600161091f565b6060600061150c8361159c565b600101905060008167ffffffffffffffff81111561152c5761152c6118fd565b6040519080825280601f01601f191660200182016040528015611556576020820181803683370190505b5090508181016020015b600019016f181899199a1a9b1b9c1cb0b131b232b360811b600a86061a8153600a850494508461158f57611594565b611560565b509392505050565b60008072184f03e93ff9f4daa797ed6e38ed64bf6a1f0160401b83106115db5772184f03e93ff9f4daa797ed6e38ed64bf6a1f0160401b830492506040015b6d04ee2d6d415b85acef81000000008310611607576d04ee2d6d415b85acef8100000000830492506020015b662386f26fc10000831061162557662386f26fc10000830492506010015b6305f5e100831061163d576305f5e100830492506008015b612710831061165157612710830492506004015b60648310611663576064830492506002015b600a83106103b05760010192915050565b50805461168090611b17565b6000825580601f10611690575050565b601f016020900490600052602060002090810190610b719190611732565b8280546116ba90611b17565b90600052602060002090601f0160209004810192826116dc5760008555611722565b82601f106116f557805160ff1916838001178555611722565b82800160010185558215611722579182015b82811115611722578251825591602001919060010190611707565b5061172e929150611732565b5090565b5b8082111561172e5760008155600101611733565b6001600160e01b031981168114610b7157600080fd5b60006020828403121561176f57600080fd5b813561130981611747565b60005b8381101561179557818101518382015260200161177d565b838111156108715750506000910152565b600081518084526117be81602086016020860161177a565b601f01601f19169290920160200192915050565b60208152600061130960208301846117a6565b6000602082840312156117f757600080fd5b5035919050565b6001600160a01b0381168114610b7157600080fd5b6000806040838503121561182657600080fd5b8235611831816117fe565b946020939093013593505050565b60008060006060848603121561185457600080fd5b833561185f816117fe565b9250602084013561186f816117fe565b929592945050506040919091013590565b6000806040838503121561189357600080fd5b50508035926020909101359150565b6000602082840312156118b457600080fd5b8135611309816117fe565b600080604083850312156118d257600080fd5b82356118dd816117fe565b9150602083013580151581146118f257600080fd5b809150509250929050565b634e487b7160e01b600052604160045260246000fd5b6000806000806080858703121561192957600080fd5b8435611934816117fe565b93506020850135611944816117fe565b925060408501359150606085013567ffffffffffffffff8082111561196857600080fd5b818701915087601f83011261197c57600080fd5b81358181111561198e5761198e6118fd565b604051601f8201601f19908116603f011681019083821181831017156119b6576119b66118fd565b816040528281528a60208487010111156119cf57600080fd5b82602086016020830137600060208483010152809550505050505092959194509250565b60008060008060608587031215611a0957600080fd5b8435611a14816117fe565b9350602085013567ffffffffffffffff80821115611a3157600080fd5b818701915087601f830112611a4557600080fd5b813581811115611a5457600080fd5b886020828501011115611a6657600080fd5b95986020929092019750949560400135945092505050565b600080600060608486031215611a9357600080fd5b83359250602084013561186f816117fe565b6020808252825182820181905260009190848201906040850190845b81811015611add57835183529284019291840191600101611ac1565b50909695505050505050565b60008060408385031215611afc57600080fd5b8235611b07816117fe565b915060208301356118f2816117fe565b600181811c90821680611b2b57607f821691505b60208210811415611b4c57634e487b7160e01b600052602260045260246000fd5b50919050565b6020808252602d908201527f4552433732313a2063616c6c6572206973206e6f7420746f6b656e206f776e6560408201526c1c881bdc88185c1c1c9bdd9959609a1b606082015260800190565b634e487b7160e01b600052601160045260246000fd5b6000816000190483118215151615611bcf57611bcf611b9f565b500290565b600082611bf157634e487b7160e01b600052601260045260246000fd5b500490565b634e487b7160e01b600052603260045260246000fd5b6000600019821415611c2057611c20611b9f565b5060010190565b600082821015611c3957611c39611b9f565b500390565b60008351611c5081846020880161177a565b835190830190611c6481836020880161177a565b01949350505050565b60208082526025908201527f4552433732313a207472616e736665722066726f6d20696e636f72726563742060408201526437bbb732b960d91b606082015260800190565b60208082526032908201527f4552433732313a207472616e7366657220746f206e6f6e20455243373231526560408201527131b2b4bb32b91034b6b83632b6b2b73a32b960711b606082015260800190565b6001600160a01b0385811682528416602082015260408101839052608060608201819052600090611d37908301846117a6565b9695505050505050565b600060208284031215611d5357600080fd5b81516113098161174756fea164736f6c6343000809000a",
  "linkReferences": {},
  "deployedLinkReferences": {}
}